{
  "contractName": "CheapCoin",
  "abi": [
    {
      "inputs": [
        {
          "internalType": "uint256",
          "name": "initialSupply",
          "type": "uint256"
        }
      ],
      "stateMutability": "nonpayable",
      "type": "constructor"
    },
    {
      "anonymous": false,
      "inputs": [
        {
          "indexed": true,
          "internalType": "address",
          "name": "owner",
          "type": "address"
        },
        {
          "indexed": true,
          "internalType": "address",
          "name": "spender",
          "type": "address"
        },
        {
          "indexed": false,
          "internalType": "uint256",
          "name": "value",
          "type": "uint256"
        }
      ],
      "name": "Approval",
      "type": "event"
    },
    {
      "anonymous": false,
      "inputs": [
        {
          "indexed": true,
          "internalType": "address",
          "name": "previousOwner",
          "type": "address"
        },
        {
          "indexed": true,
          "internalType": "address",
          "name": "newOwner",
          "type": "address"
        }
      ],
      "name": "OwnershipTransferred",
      "type": "event"
    },
    {
      "anonymous": false,
      "inputs": [
        {
          "indexed": true,
          "internalType": "address",
          "name": "from",
          "type": "address"
        },
        {
          "indexed": true,
          "internalType": "address",
          "name": "to",
          "type": "address"
        },
        {
          "indexed": false,
          "internalType": "uint256",
          "name": "value",
          "type": "uint256"
        }
      ],
      "name": "Transfer",
      "type": "event"
    },
    {
      "inputs": [],
      "name": "Max_Supply",
      "outputs": [
        {
          "internalType": "uint256",
          "name": "",
          "type": "uint256"
        }
      ],
      "stateMutability": "view",
      "type": "function"
    },
    {
      "inputs": [],
      "name": "admin",
      "outputs": [
        {
          "internalType": "address",
          "name": "",
          "type": "address"
        }
      ],
      "stateMutability": "view",
      "type": "function"
    },
    {
      "inputs": [
        {
          "internalType": "address",
          "name": "owner",
          "type": "address"
        },
        {
          "internalType": "address",
          "name": "spender",
          "type": "address"
        }
      ],
      "name": "allowance",
      "outputs": [
        {
          "internalType": "uint256",
          "name": "",
          "type": "uint256"
        }
      ],
      "stateMutability": "view",
      "type": "function"
    },
    {
      "inputs": [
        {
          "internalType": "address",
          "name": "spender",
          "type": "address"
        },
        {
          "internalType": "uint256",
          "name": "amount",
          "type": "uint256"
        }
      ],
      "name": "approve",
      "outputs": [
        {
          "internalType": "bool",
          "name": "",
          "type": "bool"
        }
      ],
      "stateMutability": "nonpayable",
      "type": "function"
    },
    {
      "inputs": [
        {
          "internalType": "address",
          "name": "account",
          "type": "address"
        }
      ],
      "name": "balanceOf",
      "outputs": [
        {
          "internalType": "uint256",
          "name": "",
          "type": "uint256"
        }
      ],
      "stateMutability": "view",
      "type": "function"
    },
    {
      "inputs": [],
      "name": "decimals",
      "outputs": [
        {
          "internalType": "uint8",
          "name": "",
          "type": "uint8"
        }
      ],
      "stateMutability": "view",
      "type": "function"
    },
    {
      "inputs": [
        {
          "internalType": "address",
          "name": "spender",
          "type": "address"
        },
        {
          "internalType": "uint256",
          "name": "subtractedValue",
          "type": "uint256"
        }
      ],
      "name": "decreaseAllowance",
      "outputs": [
        {
          "internalType": "bool",
          "name": "",
          "type": "bool"
        }
      ],
      "stateMutability": "nonpayable",
      "type": "function"
    },
    {
      "inputs": [
        {
          "internalType": "address",
          "name": "spender",
          "type": "address"
        },
        {
          "internalType": "uint256",
          "name": "addedValue",
          "type": "uint256"
        }
      ],
      "name": "increaseAllowance",
      "outputs": [
        {
          "internalType": "bool",
          "name": "",
          "type": "bool"
        }
      ],
      "stateMutability": "nonpayable",
      "type": "function"
    },
    {
      "inputs": [],
      "name": "name",
      "outputs": [
        {
          "internalType": "string",
          "name": "",
          "type": "string"
        }
      ],
      "stateMutability": "view",
      "type": "function"
    },
    {
      "inputs": [],
      "name": "owner",
      "outputs": [
        {
          "internalType": "address",
          "name": "",
          "type": "address"
        }
      ],
      "stateMutability": "view",
      "type": "function"
    },
    {
      "inputs": [],
      "name": "renounceOwnership",
      "outputs": [],
      "stateMutability": "nonpayable",
      "type": "function"
    },
    {
      "inputs": [],
      "name": "symbol",
      "outputs": [
        {
          "internalType": "string",
          "name": "",
          "type": "string"
        }
      ],
      "stateMutability": "view",
      "type": "function"
    },
    {
      "inputs": [],
      "name": "totalSupply",
      "outputs": [
        {
          "internalType": "uint256",
          "name": "",
          "type": "uint256"
        }
      ],
      "stateMutability": "view",
      "type": "function"
    },
    {
      "inputs": [
        {
          "internalType": "address",
          "name": "to",
          "type": "address"
        },
        {
          "internalType": "uint256",
          "name": "amount",
          "type": "uint256"
        }
      ],
      "name": "transfer",
      "outputs": [
        {
          "internalType": "bool",
          "name": "",
          "type": "bool"
        }
      ],
      "stateMutability": "nonpayable",
      "type": "function"
    },
    {
      "inputs": [
        {
          "internalType": "address",
          "name": "from",
          "type": "address"
        },
        {
          "internalType": "address",
          "name": "to",
          "type": "address"
        },
        {
          "internalType": "uint256",
          "name": "amount",
          "type": "uint256"
        }
      ],
      "name": "transferFrom",
      "outputs": [
        {
          "internalType": "bool",
          "name": "",
          "type": "bool"
        }
      ],
      "stateMutability": "nonpayable",
      "type": "function"
    },
    {
      "inputs": [
        {
          "internalType": "address",
          "name": "newOwner",
          "type": "address"
        }
      ],
      "name": "transferOwnership",
      "outputs": [],
      "stateMutability": "nonpayable",
      "type": "function"
    },
    {
      "inputs": [
        {
          "internalType": "address",
          "name": "",
          "type": "address"
        }
      ],
      "name": "userBalances",
      "outputs": [
        {
          "internalType": "uint256",
          "name": "",
          "type": "uint256"
        }
      ],
      "stateMutability": "view",
      "type": "function"
    },
    {
      "inputs": [
        {
          "internalType": "uint256",
          "name": "",
          "type": "uint256"
        }
      ],
      "name": "users",
      "outputs": [
        {
          "internalType": "address",
          "name": "",
          "type": "address"
        }
      ],
      "stateMutability": "view",
      "type": "function"
    },
    {
      "inputs": [
        {
          "internalType": "address",
          "name": "to",
          "type": "address"
        },
        {
          "internalType": "uint256",
          "name": "amount",
          "type": "uint256"
        }
      ],
      "name": "mint",
      "outputs": [],
      "stateMutability": "nonpayable",
      "type": "function"
    },
    {
      "inputs": [
        {
          "internalType": "uint256",
          "name": "amount",
          "type": "uint256"
        }
      ],
      "name": "burn",
      "outputs": [],
      "stateMutability": "nonpayable",
      "type": "function"
    }
  ],
  "bytecode": "0x6080604052600680546001600160a01b031916331790553480156200002357600080fd5b50604051620012053803806200120583398101604081905262000046916200033c565b60405180604001604052806005815260200164043686561760dc1b8152506040518060400160405280600381526020016204348560ec1b81525081600390805190602001906200009892919062000296565b508051620000ae90600490602084019062000296565b505050620000cb620000c56200015b60201b60201c565b6200015f565b69021e19e0c9bab240000060078190558110620001485760405162461bcd60e51b815260206004820152603060248201527f496e697469616c20537570706c792073686f756c6420626520736d616c6c657260448201526f207468616e204d617820537570706c7960801b60648201526084015b60405180910390fd5b620001543382620001b1565b50620003b7565b3390565b600580546001600160a01b038381166001600160a01b0319831681179093556040519116919082907f8be0079c531659141344cd1fd0a4f28419497f9722a3daafe3b4186f6b6457e090600090a35050565b6001600160a01b038216620002095760405162461bcd60e51b815260206004820152601f60248201527f45524332303a206d696e7420746f20746865207a65726f20616464726573730060448201526064016200013f565b80600260008282546200021d919062000355565b90915550506001600160a01b038216600090815260208190526040812080548392906200024c90849062000355565b90915550506040518181526001600160a01b038316906000907fddf252ad1be2c89b69c2b068fc378daa952ba7f163c4a11628f55a4df523b3ef9060200160405180910390a35050565b828054620002a4906200037a565b90600052602060002090601f016020900481019282620002c8576000855562000313565b82601f10620002e357805160ff191683800117855562000313565b8280016001018555821562000313579182015b8281111562000313578251825591602001919060010190620002f6565b506200032192915062000325565b5090565b5b8082111562000321576000815560010162000326565b6000602082840312156200034e578081fd5b5051919050565b600082198211156200037557634e487b7160e01b81526011600452602481fd5b500190565b600181811c908216806200038f57607f821691505b60208210811415620003b157634e487b7160e01b600052602260045260246000fd5b50919050565b610e3e80620003c76000396000f3fe608060405234801561001057600080fd5b506004361061012c5760003560e01c80636737c9c1116100ad578063a457c2d711610071578063a457c2d71461027f578063a9059cbb14610292578063dd62ed3e146102a5578063f2fde38b146102b8578063f851a440146102cb57600080fd5b80636737c9c11461022c57806370a0823114610235578063715018a61461025e5780638da5cb5b1461026657806395d89b411461027757600080fd5b8063313ce567116100f4578063313ce567146101b7578063365b98b2146101c657806339509351146101f157806340c10f191461020457806342966c681461021957600080fd5b806306fdde0314610131578063095ea7b31461014f57806318160ddd1461017257806323b872dd1461018457806326224c6414610197575b600080fd5b6101396102de565b6040516101469190610d00565b60405180910390f35b61016261015d366004610cbf565b610370565b6040519015158152602001610146565b6002545b604051908152602001610146565b610162610192366004610c84565b610388565b6101766101a5366004610c31565b60096020526000908152604090205481565b60405160128152602001610146565b6101d96101d4366004610ce8565b6103ac565b6040516001600160a01b039091168152602001610146565b6101626101ff366004610cbf565b6103d6565b610217610212366004610cbf565b6103f8565b005b610217610227366004610ce8565b610493565b61017660075481565b610176610243366004610c31565b6001600160a01b031660009081526020819052604090205490565b6102176104a0565b6005546001600160a01b03166101d9565b6101396104d6565b61016261028d366004610cbf565b6104e5565b6101626102a0366004610cbf565b610560565b6101766102b3366004610c52565b61056e565b6102176102c6366004610c31565b610599565b6006546101d9906001600160a01b031681565b6060600380546102ed90610db7565b80601f016020809104026020016040519081016040528092919081815260200182805461031990610db7565b80156103665780601f1061033b57610100808354040283529160200191610366565b820191906000526020600020905b81548152906001019060200180831161034957829003601f168201915b5050505050905090565b60003361037e818585610631565b5060019392505050565b600033610396858285610756565b6103a18585856107d0565b506001949350505050565b600881815481106103bc57600080fd5b6000918252602090912001546001600160a01b0316905081565b60003361037e8185856103e9838361056e565b6103f39190610d88565b610631565b6005546001600160a01b0316331461042b5760405162461bcd60e51b815260040161042290610d53565b60405180910390fd5b8061043560025490565b61043f9190610d88565b600754116104855760405162461bcd60e51b8152602060048201526013602482015272496e73756666696369656e7420737570706c7960681b6044820152606401610422565b61048f828261099e565b5050565b61049d3382610a7d565b50565b6005546001600160a01b031633146104ca5760405162461bcd60e51b815260040161042290610d53565b6104d46000610bc3565b565b6060600480546102ed90610db7565b600033816104f3828661056e565b9050838110156105535760405162461bcd60e51b815260206004820152602560248201527f45524332303a2064656372656173656420616c6c6f77616e63652062656c6f77604482015264207a65726f60d81b6064820152608401610422565b6103a18286868403610631565b60003361037e8185856107d0565b6001600160a01b03918216600090815260016020908152604080832093909416825291909152205490565b6005546001600160a01b031633146105c35760405162461bcd60e51b815260040161042290610d53565b6001600160a01b0381166106285760405162461bcd60e51b815260206004820152602660248201527f4f776e61626c653a206e6577206f776e657220697320746865207a65726f206160448201526564647265737360d01b6064820152608401610422565b61049d81610bc3565b6001600160a01b0383166106935760405162461bcd60e51b8152602060048201526024808201527f45524332303a20617070726f76652066726f6d20746865207a65726f206164646044820152637265737360e01b6064820152608401610422565b6001600160a01b0382166106f45760405162461bcd60e51b815260206004820152602260248201527f45524332303a20617070726f766520746f20746865207a65726f206164647265604482015261737360f01b6064820152608401610422565b6001600160a01b0383811660008181526001602090815260408083209487168084529482529182902085905590518481527f8c5be1e5ebec7d5bd14f71427d1e84f3dd0314c0f7b2291e5b200ac8c7c3b92591015b60405180910390a3505050565b6000610762848461056e565b905060001981146107ca57818110156107bd5760405162461bcd60e51b815260206004820152601d60248201527f45524332303a20696e73756666696369656e7420616c6c6f77616e63650000006044820152606401610422565b6107ca8484848403610631565b50505050565b6001600160a01b0383166108345760405162461bcd60e51b815260206004820152602560248201527f45524332303a207472616e736665722066726f6d20746865207a65726f206164604482015264647265737360d81b6064820152608401610422565b6001600160a01b0382166108965760405162461bcd60e51b815260206004820152602360248201527f45524332303a207472616e7366657220746f20746865207a65726f206164647260448201526265737360e81b6064820152608401610422565b6001600160a01b0383166000908152602081905260409020548181101561090e5760405162461bcd60e51b815260206004820152602660248201527f45524332303a207472616e7366657220616d6f756e7420657863656564732062604482015265616c616e636560d01b6064820152608401610422565b6001600160a01b03808516600090815260208190526040808220858503905591851681529081208054849290610945908490610d88565b92505081905550826001600160a01b0316846001600160a01b03167fddf252ad1be2c89b69c2b068fc378daa952ba7f163c4a11628f55a4df523b3ef8460405161099191815260200190565b60405180910390a36107ca565b6001600160a01b0382166109f45760405162461bcd60e51b815260206004820152601f60248201527f45524332303a206d696e7420746f20746865207a65726f2061646472657373006044820152606401610422565b8060026000828254610a069190610d88565b90915550506001600160a01b03821660009081526020819052604081208054839290610a33908490610d88565b90915550506040518181526001600160a01b038316906000907fddf252ad1be2c89b69c2b068fc378daa952ba7f163c4a11628f55a4df523b3ef9060200160405180910390a35050565b6001600160a01b038216610add5760405162461bcd60e51b815260206004820152602160248201527f45524332303a206275726e2066726f6d20746865207a65726f206164647265736044820152607360f81b6064820152608401610422565b6001600160a01b03821660009081526020819052604090205481811015610b515760405162461bcd60e51b815260206004820152602260248201527f45524332303a206275726e20616d6f756e7420657863656564732062616c616e604482015261636560f01b6064820152608401610422565b6001600160a01b0383166000908152602081905260408120838303905560028054849290610b80908490610da0565b90915550506040518281526000906001600160a01b038516907fddf252ad1be2c89b69c2b068fc378daa952ba7f163c4a11628f55a4df523b3ef90602001610749565b600580546001600160a01b038381166001600160a01b0319831681179093556040519116919082907f8be0079c531659141344cd1fd0a4f28419497f9722a3daafe3b4186f6b6457e090600090a35050565b80356001600160a01b0381168114610c2c57600080fd5b919050565b600060208284031215610c42578081fd5b610c4b82610c15565b9392505050565b60008060408385031215610c64578081fd5b610c6d83610c15565b9150610c7b60208401610c15565b90509250929050565b600080600060608486031215610c98578081fd5b610ca184610c15565b9250610caf60208501610c15565b9150604084013590509250925092565b60008060408385031215610cd1578182fd5b610cda83610c15565b946020939093013593505050565b600060208284031215610cf9578081fd5b5035919050565b6000602080835283518082850152825b81811015610d2c57858101830151858201604001528201610d10565b81811115610d3d5783604083870101525b50601f01601f1916929092016040019392505050565b6020808252818101527f4f776e61626c653a2063616c6c6572206973206e6f7420746865206f776e6572604082015260600190565b60008219821115610d9b57610d9b610df2565b500190565b600082821015610db257610db2610df2565b500390565b600181811c90821680610dcb57607f821691505b60208210811415610dec57634e487b7160e01b600052602260045260246000fd5b50919050565b634e487b7160e01b600052601160045260246000fdfea264697066735822122089ed0fd7f4b2fc15ca5593cc9959a47e56f662471efc97e4dfea22f2a8a87db264736f6c63430008040033",
  "immutableReferences": {},
  "source": "// SPDX-License-Identifier: None\npragma solidity ^0.8.4;\n\nimport \"@openzeppelin/contracts/token/ERC20/ERC20.sol\";\nimport \"@openzeppelin/contracts/access/Ownable.sol\";\n\ncontract CheapCoin is ERC20, Ownable {\n\n    address public admin = msg.sender;\n    uint256 public Max_Supply;\n    //uint Tokens_sold = 0;\n    // uint256 public tokens_minted;\n    \n    address[] public users;\n    mapping (address => uint) public userBalances;\n\n\n    constructor(uint256 initialSupply) ERC20(\"Cheap\", \"CHP\") {\n        Max_Supply = 10000 * (10**18);\n        require(\n            initialSupply < Max_Supply,\n            \"Initial Supply should be smaller than Max Supply\"\n        );\n        _mint(msg.sender, initialSupply);\n        // tokens_minted = initialSupply;\n    }\n\n\n\n    function mint(address to, uint256 amount) external onlyOwner {\n        //require(msg.sender == admin, \"only admin\");\n        require(Max_Supply > totalSupply() + amount, \"Insufficient supply\");\n        _mint(to, amount);\n    }\n\n    function burn(uint256 amount) external {\n        _burn(msg.sender, amount);\n    }\n}\n",
  "sourcePath": "/home/surya/TESTPROJECTS/CheapCoin/contracts/cheapcoin.sol",
  "compiler": {
    "name": "solc",
    "version": "0.8.4+commit.c7e474f2.Emscripten.clang"
  },
  "schemaVersion": "3.4.5",
  "updatedAt": "2022-06-10T05:43:19.775Z",
  "devdoc": {
    "kind": "dev",
    "methods": {
      "allowance(address,address)": {
        "details": "See {IERC20-allowance}."
      },
      "approve(address,uint256)": {
        "details": "See {IERC20-approve}. NOTE: If `amount` is the maximum `uint256`, the allowance is not updated on `transferFrom`. This is semantically equivalent to an infinite approval. Requirements: - `spender` cannot be the zero address."
      },
      "balanceOf(address)": {
        "details": "See {IERC20-balanceOf}."
      },
      "decimals()": {
        "details": "Returns the number of decimals used to get its user representation. For example, if `decimals` equals `2`, a balance of `505` tokens should be displayed to a user as `5.05` (`505 / 10 ** 2`). Tokens usually opt for a value of 18, imitating the relationship between Ether and Wei. This is the value {ERC20} uses, unless this function is overridden; NOTE: This information is only used for _display_ purposes: it in no way affects any of the arithmetic of the contract, including {IERC20-balanceOf} and {IERC20-transfer}."
      },
      "decreaseAllowance(address,uint256)": {
        "details": "Atomically decreases the allowance granted to `spender` by the caller. This is an alternative to {approve} that can be used as a mitigation for problems described in {IERC20-approve}. Emits an {Approval} event indicating the updated allowance. Requirements: - `spender` cannot be the zero address. - `spender` must have allowance for the caller of at least `subtractedValue`."
      },
      "increaseAllowance(address,uint256)": {
        "details": "Atomically increases the allowance granted to `spender` by the caller. This is an alternative to {approve} that can be used as a mitigation for problems described in {IERC20-approve}. Emits an {Approval} event indicating the updated allowance. Requirements: - `spender` cannot be the zero address."
      },
      "name()": {
        "details": "Returns the name of the token."
      },
      "owner()": {
        "details": "Returns the address of the current owner."
      },
      "renounceOwnership()": {
        "details": "Leaves the contract without owner. It will not be possible to call `onlyOwner` functions anymore. Can only be called by the current owner. NOTE: Renouncing ownership will leave the contract without an owner, thereby removing any functionality that is only available to the owner."
      },
      "symbol()": {
        "details": "Returns the symbol of the token, usually a shorter version of the name."
      },
      "totalSupply()": {
        "details": "See {IERC20-totalSupply}."
      },
      "transfer(address,uint256)": {
        "details": "See {IERC20-transfer}. Requirements: - `to` cannot be the zero address. - the caller must have a balance of at least `amount`."
      },
      "transferFrom(address,address,uint256)": {
        "details": "See {IERC20-transferFrom}. Emits an {Approval} event indicating the updated allowance. This is not required by the EIP. See the note at the beginning of {ERC20}. NOTE: Does not update the allowance if the current allowance is the maximum `uint256`. Requirements: - `from` and `to` cannot be the zero address. - `from` must have a balance of at least `amount`. - the caller must have allowance for ``from``'s tokens of at least `amount`."
      },
      "transferOwnership(address)": {
        "details": "Transfers ownership of the contract to a new account (`newOwner`). Can only be called by the current owner."
      }
    },
    "version": 1
  },
  "userdoc": {
    "kind": "user",
    "methods": {},
    "version": 1
  }
}